{
  "contractName": "Store",
  "abi": [
    {
      "inputs": [
        {
          "internalType": "string",
          "name": "_storeName",
          "type": "string"
        },
        {
          "internalType": "address",
          "name": "_storeOwner",
          "type": "address"
        },
        {
          "internalType": "uint256",
          "name": "_feePercent",
          "type": "uint256"
        }
      ],
      "stateMutability": "nonpayable",
      "type": "constructor"
    },
    {
      "anonymous": false,
      "inputs": [
        {
          "indexed": false,
          "internalType": "uint256",
          "name": "id",
          "type": "uint256"
        },
        {
          "indexed": true,
          "internalType": "address",
          "name": "seller",
          "type": "address"
        },
        {
          "indexed": false,
          "internalType": "string",
          "name": "name",
          "type": "string"
        },
        {
          "indexed": false,
          "internalType": "uint256",
          "name": "price",
          "type": "uint256"
        },
        {
          "indexed": false,
          "internalType": "string",
          "name": "image",
          "type": "string"
        },
        {
          "indexed": false,
          "internalType": "uint256",
          "name": "timestamp",
          "type": "uint256"
        }
      ],
      "name": "ItemListed",
      "type": "event"
    },
    {
      "anonymous": false,
      "inputs": [
        {
          "indexed": true,
          "internalType": "address",
          "name": "buyer",
          "type": "address"
        },
        {
          "indexed": true,
          "internalType": "address",
          "name": "seller",
          "type": "address"
        },
        {
          "indexed": false,
          "internalType": "uint256",
          "name": "amount",
          "type": "uint256"
        },
        {
          "indexed": false,
          "internalType": "uint256",
          "name": "timestamp",
          "type": "uint256"
        }
      ],
      "name": "Sale",
      "type": "event"
    },
    {
      "anonymous": false,
      "inputs": [
        {
          "indexed": true,
          "internalType": "address",
          "name": "receiver",
          "type": "address"
        },
        {
          "indexed": false,
          "internalType": "uint256",
          "name": "amount",
          "type": "uint256"
        },
        {
          "indexed": false,
          "internalType": "uint256",
          "name": "timestamp",
          "type": "uint256"
        }
      ],
      "name": "Withdrawal",
      "type": "event"
    },
    {
      "inputs": [],
      "name": "feePercent",
      "outputs": [
        {
          "internalType": "uint256",
          "name": "",
          "type": "uint256"
        }
      ],
      "stateMutability": "view",
      "type": "function",
      "constant": true
    },
    {
      "inputs": [],
      "name": "itemCount",
      "outputs": [
        {
          "internalType": "uint256",
          "name": "",
          "type": "uint256"
        }
      ],
      "stateMutability": "view",
      "type": "function",
      "constant": true
    },
    {
      "inputs": [
        {
          "internalType": "uint256",
          "name": "",
          "type": "uint256"
        }
      ],
      "name": "items",
      "outputs": [
        {
          "internalType": "uint256",
          "name": "id",
          "type": "uint256"
        },
        {
          "internalType": "address",
          "name": "seller",
          "type": "address"
        },
        {
          "internalType": "string",
          "name": "name",
          "type": "string"
        },
        {
          "internalType": "uint256",
          "name": "price",
          "type": "uint256"
        },
        {
          "internalType": "string",
          "name": "image",
          "type": "string"
        },
        {
          "internalType": "bool",
          "name": "sold",
          "type": "bool"
        }
      ],
      "stateMutability": "view",
      "type": "function",
      "constant": true
    },
    {
      "inputs": [
        {
          "internalType": "address",
          "name": "",
          "type": "address"
        }
      ],
      "name": "salesOf",
      "outputs": [
        {
          "internalType": "uint256",
          "name": "",
          "type": "uint256"
        }
      ],
      "stateMutability": "view",
      "type": "function",
      "constant": true
    },
    {
      "inputs": [],
      "name": "storeAcc",
      "outputs": [
        {
          "internalType": "uint256",
          "name": "",
          "type": "uint256"
        }
      ],
      "stateMutability": "view",
      "type": "function",
      "constant": true
    },
    {
      "inputs": [],
      "name": "storeName",
      "outputs": [
        {
          "internalType": "string",
          "name": "",
          "type": "string"
        }
      ],
      "stateMutability": "view",
      "type": "function",
      "constant": true
    },
    {
      "inputs": [],
      "name": "storeOwner",
      "outputs": [
        {
          "internalType": "address",
          "name": "",
          "type": "address"
        }
      ],
      "stateMutability": "view",
      "type": "function",
      "constant": true
    },
    {
      "inputs": [],
      "name": "storeSales",
      "outputs": [
        {
          "internalType": "uint256",
          "name": "",
          "type": "uint256"
        }
      ],
      "stateMutability": "view",
      "type": "function",
      "constant": true
    },
    {
      "inputs": [
        {
          "internalType": "string",
          "name": "_name",
          "type": "string"
        },
        {
          "internalType": "uint256",
          "name": "_price",
          "type": "uint256"
        },
        {
          "internalType": "string",
          "name": "_image",
          "type": "string"
        }
      ],
      "name": "listItem",
      "outputs": [],
      "stateMutability": "nonpayable",
      "type": "function"
    },
    {
      "inputs": [],
      "name": "getAllItems",
      "outputs": [
        {
          "components": [
            {
              "internalType": "uint256",
              "name": "id",
              "type": "uint256"
            },
            {
              "internalType": "address",
              "name": "seller",
              "type": "address"
            },
            {
              "internalType": "string",
              "name": "name",
              "type": "string"
            },
            {
              "internalType": "uint256",
              "name": "price",
              "type": "uint256"
            },
            {
              "internalType": "string",
              "name": "image",
              "type": "string"
            },
            {
              "internalType": "bool",
              "name": "sold",
              "type": "bool"
            }
          ],
          "internalType": "struct Store.Item[]",
          "name": "",
          "type": "tuple[]"
        }
      ],
      "stateMutability": "view",
      "type": "function",
      "constant": true
    },
    {
      "inputs": [
        {
          "internalType": "address",
          "name": "seller",
          "type": "address"
        },
        {
          "internalType": "string",
          "name": "purpose",
          "type": "string"
        }
      ],
      "name": "payNow",
      "outputs": [
        {
          "internalType": "bool",
          "name": "success",
          "type": "bool"
        }
      ],
      "stateMutability": "payable",
      "type": "function",
      "payable": true
    },
    {
      "inputs": [],
      "name": "getAllSales",
      "outputs": [
        {
          "components": [
            {
              "internalType": "address",
              "name": "buyer",
              "type": "address"
            },
            {
              "internalType": "address",
              "name": "seller",
              "type": "address"
            },
            {
              "internalType": "uint256",
              "name": "amount",
              "type": "uint256"
            },
            {
              "internalType": "string",
              "name": "purpose",
              "type": "string"
            },
            {
              "internalType": "uint256",
              "name": "timestamp",
              "type": "uint256"
            }
          ],
          "internalType": "struct Store.SalesStruct[]",
          "name": "",
          "type": "tuple[]"
        }
      ],
      "stateMutability": "view",
      "type": "function",
      "constant": true
    }
  ],
  "bytecode": "0x60c06040523480156200001157600080fd5b506040516200244d3803806200244d833981810160405281019062000037919062000389565b82600190805190602001906200004f9291906200009c565b508173ffffffffffffffffffffffffffffffffffffffff1660808173ffffffffffffffffffffffffffffffffffffffff16815250508060a081815250506000808190555050505062000469565b828054620000aa9062000433565b90600052602060002090601f016020900481019282620000ce57600085556200011a565b82601f10620000e957805160ff19168380011785556200011a565b828001600101855582156200011a579182015b8281111562000119578251825591602001919060010190620000fc565b5b5090506200012991906200012d565b5090565b5b80821115620001485760008160009055506001016200012e565b5090565b6000604051905090565b600080fd5b600080fd5b600080fd5b600080fd5b6000601f19601f8301169050919050565b7f4e487b7100000000000000000000000000000000000000000000000000000000600052604160045260246000fd5b620001b5826200016a565b810181811067ffffffffffffffff82111715620001d757620001d66200017b565b5b80604052505050565b6000620001ec6200014c565b9050620001fa8282620001aa565b919050565b600067ffffffffffffffff8211156200021d576200021c6200017b565b5b62000228826200016a565b9050602081019050919050565b60005b838110156200025557808201518184015260208101905062000238565b8381111562000265576000848401525b50505050565b6000620002826200027c84620001ff565b620001e0565b905082815260208101848484011115620002a157620002a062000165565b5b620002ae84828562000235565b509392505050565b600082601f830112620002ce57620002cd62000160565b5b8151620002e08482602086016200026b565b91505092915050565b600073ffffffffffffffffffffffffffffffffffffffff82169050919050565b60006200031682620002e9565b9050919050565b620003288162000309565b81146200033457600080fd5b50565b60008151905062000348816200031d565b92915050565b6000819050919050565b62000363816200034e565b81146200036f57600080fd5b50565b600081519050620003838162000358565b92915050565b600080600060608486031215620003a557620003a462000156565b5b600084015167ffffffffffffffff811115620003c657620003c56200015b565b5b620003d486828701620002b6565b9350506020620003e78682870162000337565b9250506040620003fa8682870162000372565b9150509250925092565b7f4e487b7100000000000000000000000000000000000000000000000000000000600052602260045260246000fd5b600060028204905060018216806200044c57607f821691505b6020821081141562000463576200046262000404565b5b50919050565b60805160a051611fa9620004a4600039600081816107a10152610c8c0152600081816107c501528181610bfb0152610d620152611fa96000f3fe6080604052600436106100a75760003560e01c8063818fb3e011610064578063818fb3e0146101ae5780638d250014146101d9578063bfb231d214610202578063db53f54814610244578063dd88060914610274578063e9b44eeb146102b1576100a7565b806333396917146100ac57806340152d5c146100d75780634ba1d6aa14610102578063521936e61461012d5780636bfb0d01146101585780637fd6f15c14610183575b600080fd5b3480156100b857600080fd5b506100c16102dc565b6040516100ce91906113bd565b60405180910390f35b3480156100e357600080fd5b506100ec61048d565b6040516100f991906113ee565b60405180910390f35b34801561010e57600080fd5b50610117610493565b6040516101249190611576565b60405180910390f35b34801561013957600080fd5b5061014261070b565b60405161014f91906115e2565b60405180910390f35b34801561016457600080fd5b5061016d610799565b60405161017a91906113ee565b60405180910390f35b34801561018f57600080fd5b5061019861079f565b6040516101a591906113ee565b60405180910390f35b3480156101ba57600080fd5b506101c36107c3565b6040516101d09190611613565b60405180910390f35b3480156101e557600080fd5b5061020060048036038101906101fb91906117a3565b6107e7565b005b34801561020e57600080fd5b506102296004803603810190610224919061182e565b610a3c565b60405161023b9695949392919061186a565b60405180910390f35b61025e60048036038101906102599190611905565b610bb5565b60405161026b9190611961565b60405180910390f35b34801561028057600080fd5b5061029b6004803603810190610296919061197c565b610f45565b6040516102a891906113ee565b60405180910390f35b3480156102bd57600080fd5b506102c6610f5d565b6040516102d391906113ee565b60405180910390f35b60606004805480602002602001604051908101604052809291908181526020016000905b8282101561048457838290600052602060002090600502016040518060a00160405290816000820160009054906101000a900473ffffffffffffffffffffffffffffffffffffffff1673ffffffffffffffffffffffffffffffffffffffff1673ffffffffffffffffffffffffffffffffffffffff1681526020016001820160009054906101000a900473ffffffffffffffffffffffffffffffffffffffff1673ffffffffffffffffffffffffffffffffffffffff1673ffffffffffffffffffffffffffffffffffffffff168152602001600282015481526020016003820180546103e9906119d8565b80601f0160208091040260200160405190810160405280929190818152602001828054610415906119d8565b80156104625780601f1061043757610100808354040283529160200191610462565b820191906000526020600020905b81548152906001019060200180831161044557829003601f168201915b5050505050815260200160048201548152505081526020019060010190610300565b50505050905090565b60005481565b6060600060065467ffffffffffffffff8111156104b3576104b261164c565b5b6040519080825280602002602001820160405280156104ec57816020015b6104d96110a1565b8152602001906001900390816104d15790505b5090506000600190505b600654811161070357600560008281526020019081526020016000206040518060c0016040529081600082015481526020016001820160009054906101000a900473ffffffffffffffffffffffffffffffffffffffff1673ffffffffffffffffffffffffffffffffffffffff1673ffffffffffffffffffffffffffffffffffffffff16815260200160028201805461058d906119d8565b80601f01602080910402602001604051908101604052809291908181526020018280546105b9906119d8565b80156106065780601f106105db57610100808354040283529160200191610606565b820191906000526020600020905b8154815290600101906020018083116105e957829003601f168201915b5050505050815260200160038201548152602001600482018054610629906119d8565b80601f0160208091040260200160405190810160405280929190818152602001828054610655906119d8565b80156106a25780601f10610677576101008083540402835291602001916106a2565b820191906000526020600020905b81548152906001019060200180831161068557829003601f168201915b505050505081526020016005820160009054906101000a900460ff161515151581525050826001836106d49190611a39565b815181106106e5576106e4611a6d565b5b602002602001018190525080806106fb90611a9c565b9150506104f6565b508091505090565b60018054610718906119d8565b80601f0160208091040260200160405190810160405280929190818152602001828054610744906119d8565b80156107915780601f1061076657610100808354040283529160200191610791565b820191906000526020600020905b81548152906001019060200180831161077457829003601f168201915b505050505081565b60065481565b7f000000000000000000000000000000000000000000000000000000000000000081565b7f000000000000000000000000000000000000000000000000000000000000000081565b600083511161082b576040517f08c379a000000000000000000000000000000000000000000000000000000000815260040161082290611b31565b60405180910390fd5b6000821161086e576040517f08c379a000000000000000000000000000000000000000000000000000000000815260040161086590611bc3565b60405180910390fd5b60008151116108b2576040517f08c379a00000000000000000000000000000000000000000000000000000000081526004016108a990611c2f565b60405180910390fd5b600660008154809291906108c590611a9c565b91905055506040518060c0016040528060065481526020013373ffffffffffffffffffffffffffffffffffffffff168152602001848152602001838152602001828152602001600015158152506005600060065481526020019081526020016000206000820151816000015560208201518160010160006101000a81548173ffffffffffffffffffffffffffffffffffffffff021916908373ffffffffffffffffffffffffffffffffffffffff16021790555060408201518160020190805190602001906109949291906110ef565b506060820151816003015560808201518160040190805190602001906109bb9291906110ef565b5060a08201518160050160006101000a81548160ff0219169083151502179055509050503373ffffffffffffffffffffffffffffffffffffffff167fd52ce377d41a3799c683d175f4068ab2f8fe097c724fec0a3316c1645b826ca260065485858542604051610a2f959493929190611c4f565b60405180910390a2505050565b60056020528060005260406000206000915090508060000154908060010160009054906101000a900473ffffffffffffffffffffffffffffffffffffffff1690806002018054610a8b906119d8565b80601f0160208091040260200160405190810160405280929190818152602001828054610ab7906119d8565b8015610b045780601f10610ad957610100808354040283529160200191610b04565b820191906000526020600020905b815481529060010190602001808311610ae757829003601f168201915b505050505090806003015490806004018054610b1f906119d8565b80601f0160208091040260200160405190810160405280929190818152602001828054610b4b906119d8565b8015610b985780601f10610b6d57610100808354040283529160200191610b98565b820191906000526020600020905b815481529060010190602001808311610b7b57829003601f168201915b5050505050908060050160009054906101000a900460ff16905086565b6000803411610bf9576040517f08c379a0000000000000000000000000000000000000000000000000000000008152600401610bf090611cfc565b60405180910390fd5b7f000000000000000000000000000000000000000000000000000000000000000073ffffffffffffffffffffffffffffffffffffffff163373ffffffffffffffffffffffffffffffffffffffff161415610c88576040517f08c379a0000000000000000000000000000000000000000000000000000000008152600401610c7f90611d68565b60405180910390fd5b60007f0000000000000000000000000000000000000000000000000000000000000000606434610cb89190611db7565b610cc29190611de8565b905060008134610cd29190611a39565b905034600080828254610ce59190611e42565b92505081905550600160026000828254610cff9190611e42565b925050819055506001600360008773ffffffffffffffffffffffffffffffffffffffff1673ffffffffffffffffffffffffffffffffffffffff1681526020019081526020016000206000828254610d569190611e42565b92505081905550610d877f000000000000000000000000000000000000000000000000000000000000000083610f63565b50610d928582610f63565b5060046040518060a001604052803373ffffffffffffffffffffffffffffffffffffffff1681526020018773ffffffffffffffffffffffffffffffffffffffff16815260200183815260200186815260200142815250908060018154018082558091505060019003906000526020600020906005020160009091909190915060008201518160000160006101000a81548173ffffffffffffffffffffffffffffffffffffffff021916908373ffffffffffffffffffffffffffffffffffffffff16021790555060208201518160010160006101000a81548173ffffffffffffffffffffffffffffffffffffffff021916908373ffffffffffffffffffffffffffffffffffffffff160217905550604082015181600201556060820151816003019080519060200190610ec59291906110ef565b506080820151816004015550508473ffffffffffffffffffffffffffffffffffffffff163373ffffffffffffffffffffffffffffffffffffffff167f681ddc67ea8796d2489979f5fc2ea2eb0f2d44ff3f11f061a191928a1f3d9a068342604051610f31929190611e98565b60405180910390a360019250505092915050565b60036020528060005260406000206000915090505481565b60025481565b6000816000541015610faa576040517f08c379a0000000000000000000000000000000000000000000000000000000008152600401610fa190611f0d565b60405180910390fd5b610fb48383611026565b81600080828254610fc59190611a39565b925050819055508273ffffffffffffffffffffffffffffffffffffffff167fdf273cb619d95419a9cd0ec88123a0538c85064229baa6363788f743fff90deb8342604051611014929190611e98565b60405180910390a26001905092915050565b60008273ffffffffffffffffffffffffffffffffffffffff168260405161104c90611f5e565b60006040518083038185875af1925050503d8060008114611089576040519150601f19603f3d011682016040523d82523d6000602084013e61108e565b606091505b505090508061109c57600080fd5b505050565b6040518060c0016040528060008152602001600073ffffffffffffffffffffffffffffffffffffffff1681526020016060815260200160008152602001606081526020016000151581525090565b8280546110fb906119d8565b90600052602060002090601f01602090048101928261111d5760008555611164565b82601f1061113657805160ff1916838001178555611164565b82800160010185558215611164579182015b82811115611163578251825591602001919060010190611148565b5b5090506111719190611175565b5090565b5b8082111561118e576000816000905550600101611176565b5090565b600081519050919050565b600082825260208201905092915050565b6000819050602082019050919050565b600073ffffffffffffffffffffffffffffffffffffffff82169050919050565b60006111e9826111be565b9050919050565b6111f9816111de565b82525050565b6000819050919050565b611212816111ff565b82525050565b600081519050919050565b600082825260208201905092915050565b60005b83811015611252578082015181840152602081019050611237565b83811115611261576000848401525b50505050565b6000601f19601f8301169050919050565b600061128382611218565b61128d8185611223565b935061129d818560208601611234565b6112a681611267565b840191505092915050565b600060a0830160008301516112c960008601826111f0565b5060208301516112dc60208601826111f0565b5060408301516112ef6040860182611209565b50606083015184820360608601526113078282611278565b915050608083015161131c6080860182611209565b508091505092915050565b600061133383836112b1565b905092915050565b6000602082019050919050565b600061135382611192565b61135d818561119d565b93508360208202850161136f856111ae565b8060005b858110156113ab578484038952815161138c8582611327565b94506113978361133b565b925060208a01995050600181019050611373565b50829750879550505050505092915050565b600060208201905081810360008301526113d78184611348565b905092915050565b6113e8816111ff565b82525050565b600060208201905061140360008301846113df565b92915050565b600081519050919050565b600082825260208201905092915050565b6000819050602082019050919050565b60008115159050919050565b61144a81611435565b82525050565b600060c0830160008301516114686000860182611209565b50602083015161147b60208601826111f0565b50604083015184820360408601526114938282611278565b91505060608301516114a86060860182611209565b50608083015184820360808601526114c08282611278565b91505060a08301516114d560a0860182611441565b508091505092915050565b60006114ec8383611450565b905092915050565b6000602082019050919050565b600061150c82611409565b6115168185611414565b93508360208202850161152885611425565b8060005b85811015611564578484038952815161154585826114e0565b9450611550836114f4565b925060208a0199505060018101905061152c565b50829750879550505050505092915050565b600060208201905081810360008301526115908184611501565b905092915050565b600082825260208201905092915050565b60006115b482611218565b6115be8185611598565b93506115ce818560208601611234565b6115d781611267565b840191505092915050565b600060208201905081810360008301526115fc81846115a9565b905092915050565b61160d816111de565b82525050565b60006020820190506116286000830184611604565b92915050565b6000604051905090565b600080fd5b600080fd5b600080fd5b600080fd5b7f4e487b7100000000000000000000000000000000000000000000000000000000600052604160045260246000fd5b61168482611267565b810181811067ffffffffffffffff821117156116a3576116a261164c565b5b80604052505050565b60006116b661162e565b90506116c2828261167b565b919050565b600067ffffffffffffffff8211156116e2576116e161164c565b5b6116eb82611267565b9050602081019050919050565b82818337600083830152505050565b600061171a611715846116c7565b6116ac565b90508281526020810184848401111561173657611735611647565b5b6117418482856116f8565b509392505050565b600082601f83011261175e5761175d611642565b5b813561176e848260208601611707565b91505092915050565b611780816111ff565b811461178b57600080fd5b50565b60008135905061179d81611777565b92915050565b6000806000606084860312156117bc576117bb611638565b5b600084013567ffffffffffffffff8111156117da576117d961163d565b5b6117e686828701611749565b93505060206117f78682870161178e565b925050604084013567ffffffffffffffff8111156118185761181761163d565b5b61182486828701611749565b9150509250925092565b60006020828403121561184457611843611638565b5b60006118528482850161178e565b91505092915050565b61186481611435565b82525050565b600060c08201905061187f60008301896113df565b61188c6020830188611604565b818103604083015261189e81876115a9565b90506118ad60608301866113df565b81810360808301526118bf81856115a9565b90506118ce60a083018461185b565b979650505050505050565b6118e2816111de565b81146118ed57600080fd5b50565b6000813590506118ff816118d9565b92915050565b6000806040838503121561191c5761191b611638565b5b600061192a858286016118f0565b925050602083013567ffffffffffffffff81111561194b5761194a61163d565b5b61195785828601611749565b9150509250929050565b6000602082019050611976600083018461185b565b92915050565b60006020828403121561199257611991611638565b5b60006119a0848285016118f0565b91505092915050565b7f4e487b7100000000000000000000000000000000000000000000000000000000600052602260045260246000fd5b600060028204905060018216806119f057607f821691505b60208210811415611a0457611a036119a9565b5b50919050565b7f4e487b7100000000000000000000000000000000000000000000000000000000600052601160045260246000fd5b6000611a44826111ff565b9150611a4f836111ff565b925082821015611a6257611a61611a0a565b5b828203905092915050565b7f4e487b7100000000000000000000000000000000000000000000000000000000600052603260045260246000fd5b6000611aa7826111ff565b91507fffffffffffffffffffffffffffffffffffffffffffffffffffffffffffffffff821415611ada57611ad9611a0a565b5b600182019050919050565b7f4974656d206e616d652069732072657175697265640000000000000000000000600082015250565b6000611b1b601583611598565b9150611b2682611ae5565b602082019050919050565b60006020820190508181036000830152611b4a81611b0e565b9050919050565b7f4974656d207072696365206d7573742062652067726561746572207468616e2060008201527f7a65726f00000000000000000000000000000000000000000000000000000000602082015250565b6000611bad602483611598565b9150611bb882611b51565b604082019050919050565b60006020820190508181036000830152611bdc81611ba0565b9050919050565b7f4974656d20696d61676520697320726571756972656400000000000000000000600082015250565b6000611c19601683611598565b9150611c2482611be3565b602082019050919050565b60006020820190508181036000830152611c4881611c0c565b9050919050565b600060a082019050611c6460008301886113df565b8181036020830152611c7681876115a9565b9050611c8560408301866113df565b8181036060830152611c9781856115a9565b9050611ca660808301846113df565b9695505050505050565b7f4574686572732063616e6e6f74206265207a65726f2100000000000000000000600082015250565b6000611ce6601683611598565b9150611cf182611cb0565b602082019050919050565b60006020820190508181036000830152611d1581611cd9565b9050919050565b7f53616c65204e6f7420616c6c6f77656400000000000000000000000000000000600082015250565b6000611d52601083611598565b9150611d5d82611d1c565b602082019050919050565b60006020820190508181036000830152611d8181611d45565b9050919050565b7f4e487b7100000000000000000000000000000000000000000000000000000000600052601260045260246000fd5b6000611dc2826111ff565b9150611dcd836111ff565b925082611ddd57611ddc611d88565b5b828204905092915050565b6000611df3826111ff565b9150611dfe836111ff565b9250817fffffffffffffffffffffffffffffffffffffffffffffffffffffffffffffffff0483118215151615611e3757611e36611a0a565b5b828202905092915050565b6000611e4d826111ff565b9150611e58836111ff565b9250827fffffffffffffffffffffffffffffffffffffffffffffffffffffffffffffffff03821115611e8d57611e8c611a0a565b5b828201905092915050565b6000604082019050611ead60008301856113df565b611eba60208301846113df565b9392505050565b7f496e737566666963656e742046756e6421000000000000000000000000000000600082015250565b6000611ef7601183611598565b9150611f0282611ec1565b602082019050919050565b60006020820190508181036000830152611f2681611eea565b9050919050565b600081905092915050565b50565b6000611f48600083611f2d565b9150611f5382611f38565b600082019050919050565b6000611f6982611f3b565b915081905091905056fea2646970667358221220883716e108d0e3fb75fc11201ab4e7e1eae80a4b559300a99a54ce2dbd285e3c64736f6c634300080b0033",
  "immutableReferences": {
    "36": [
      {
        "length": 32,
        "start": 1989
      },
      {
        "length": 32,
        "start": 3067
      },
      {
        "length": 32,
        "start": 3426
      }
    ],
    "42": [
      {
        "length": 32,
        "start": 1953
      },
      {
        "length": 32,
        "start": 3212
      }
    ]
  },
  "source": "// SPDX-License-Identifier: MIT\r\npragma solidity ^0.8.4;\r\n\r\ncontract Store {\r\n    // Store variables\r\n    address public immutable storeOwner;\r\n    uint256 public storeAcc;\r\n    string public storeName;\r\n    uint256 public immutable feePercent;\r\n    uint256 public storeSales;\r\n\r\n    // Tracking users number of sales\r\n    mapping(address => uint256) public salesOf;\r\n\r\n    // Declaring Events within each sale\r\n    event Sale(\r\n        address indexed buyer,\r\n        address indexed seller,\r\n        uint256 amount,\r\n        uint256 timestamp\r\n    );\r\n\r\n    event Withdrawal(\r\n        address indexed receiver,\r\n        uint256 amount,\r\n        uint256 timestamp\r\n    );\r\n\r\n    // Structuring the sales object\r\n    struct SalesStruct {\r\n        address buyer;\r\n        address seller;\r\n        uint256 amount;\r\n        string purpose;\r\n        uint256 timestamp;\r\n    }\r\n\r\n    SalesStruct[] sales;\r\n\r\n    struct Item {\r\n    uint256 id;\r\n    address seller;\r\n    string name;\r\n    uint256 price;\r\n    string image;\r\n    bool sold;\r\n    }\r\n\r\n    mapping(uint256 => Item) public items;\r\n    uint256 public itemCount;\r\n\r\n    event ItemListed(\r\n    uint256 id,\r\n    address indexed seller,\r\n    string name,\r\n    uint256 price,\r\n    string image,\r\n    uint256 timestamp\r\n    );\r\n\r\n    // Initializing the store\r\n    constructor(\r\n        string memory _storeName,\r\n        address _storeOwner,\r\n        uint256 _feePercent\r\n    ) {\r\n        storeName = _storeName;\r\n        storeOwner = _storeOwner;\r\n        feePercent = _feePercent;\r\n        storeAcc = 0;\r\n    }\r\n\r\n    // Function to list an item\r\n    function listItem(string memory _name, uint256 _price, string memory _image) public {\r\n        require(bytes(_name).length > 0, \"Item name is required\");\r\n        require(_price > 0, \"Item price must be greater than zero\");\r\n        require(bytes(_image).length > 0, \"Item image is required\");\r\n\r\n        itemCount++;\r\n        items[itemCount] = Item(itemCount, msg.sender, _name, _price, _image, false);\r\n\r\n        emit ItemListed(itemCount, msg.sender, _name, _price, _image, block.timestamp);\r\n    }\r\n\r\n    // Function to get all items\r\n    function getAllItems() public view returns (Item[] memory) {\r\n        Item[] memory allItems = new Item[](itemCount);\r\n        for (uint256 i = 1; i <= itemCount; i++) {\r\n            allItems[i - 1] = items[i];\r\n        }\r\n        return allItems;\r\n    }\r\n\r\n    // Performing sales payment\r\n    function payNow(address seller, string memory purpose)\r\n        public\r\n        payable\r\n        returns (bool success)\r\n    {\r\n        // Validating payments\r\n        require(msg.value > 0, \"Ethers cannot be zero!\");\r\n        require(msg.sender != storeOwner, \"Sale Not allowed\");\r\n\r\n        // Calculating up cost and fee\r\n        uint256 fee = (msg.value / 100) * feePercent;\r\n        uint256 cost = msg.value - fee;\r\n\r\n        // Assigning sales and payment to store and product owner\r\n        storeAcc += msg.value;\r\n        storeSales += 1;\r\n        salesOf[seller] += 1;\r\n\r\n        // Cashing out to sales party\r\n        withdrawMoneyTo(storeOwner, fee);\r\n        withdrawMoneyTo(seller, cost);\r\n\r\n        // Recording sales in smart contract\r\n        sales.push(\r\n            SalesStruct(msg.sender, seller, cost, purpose, block.timestamp)\r\n        );\r\n\r\n        // Captures sales data on event\r\n        emit Sale(msg.sender, seller, cost, block.timestamp);\r\n        return true;\r\n    }\r\n\r\n    // Sends ethers to a specified address\r\n    function _payTo(address _to, uint256 _amount) internal {\r\n        (bool success1, ) = payable(_to).call{value: _amount}(\"\");\r\n        require(success1);\r\n    }\r\n\r\n    // Performs ethers transfer\r\n    function withdrawMoneyTo(address receiver, uint256 amount)\r\n        internal\r\n        returns (bool success)\r\n    {\r\n        require(storeAcc >= amount, \"Insufficent Fund!\");\r\n\r\n        _payTo(receiver, amount);\r\n        storeAcc -= amount;\r\n\r\n        // Captures transfer data on event\r\n        emit Withdrawal(receiver, amount, block.timestamp);\r\n        return true;\r\n    }\r\n\r\n    // Retreives all processed sales from smart contract\r\n    function getAllSales() public view returns (SalesStruct[] memory) {\r\n        return sales;\r\n    }\r\n}",
  "sourcePath": "C:\\Users\\fudge\\Desktop\\Blockchain V2\\ecochain\\contracts\\Store.sol",
  "compiler": {
    "name": "solc",
    "version": "0.8.11+commit.d7f03943.Emscripten.clang"
  },
  "schemaVersion": "3.4.16",
  "updatedAt": "2025-01-18T17:57:07.389Z",
  "networkType": "ethereum",
  "devdoc": {
    "kind": "dev",
    "methods": {},
    "version": 1
  },
  "userdoc": {
    "kind": "user",
    "methods": {},
    "version": 1
  }
}