{
  "contractName": "Store",
  "abi": [
    {
      "inputs": [
        {
          "internalType": "string",
          "name": "_storeName",
          "type": "string"
        },
        {
          "internalType": "address",
          "name": "_storeOwner",
          "type": "address"
        },
        {
          "internalType": "uint256",
          "name": "_feePercent",
          "type": "uint256"
        }
      ],
      "stateMutability": "nonpayable",
      "type": "constructor"
    },
    {
      "anonymous": false,
      "inputs": [
        {
          "indexed": false,
          "internalType": "uint256",
          "name": "id",
          "type": "uint256"
        },
        {
          "indexed": true,
          "internalType": "address",
          "name": "seller",
          "type": "address"
        },
        {
          "indexed": false,
          "internalType": "string",
          "name": "name",
          "type": "string"
        },
        {
          "indexed": false,
          "internalType": "uint256",
          "name": "price",
          "type": "uint256"
        },
        {
          "indexed": false,
          "internalType": "string",
          "name": "image",
          "type": "string"
        },
        {
          "indexed": false,
          "internalType": "uint256",
          "name": "timestamp",
          "type": "uint256"
        }
      ],
      "name": "ItemListed",
      "type": "event"
    },
    {
      "anonymous": false,
      "inputs": [
        {
          "indexed": true,
          "internalType": "address",
          "name": "buyer",
          "type": "address"
        },
        {
          "indexed": true,
          "internalType": "address",
          "name": "seller",
          "type": "address"
        },
        {
          "indexed": false,
          "internalType": "uint256",
          "name": "amount",
          "type": "uint256"
        },
        {
          "indexed": false,
          "internalType": "uint256",
          "name": "timestamp",
          "type": "uint256"
        }
      ],
      "name": "Sale",
      "type": "event"
    },
    {
      "anonymous": false,
      "inputs": [
        {
          "indexed": true,
          "internalType": "address",
          "name": "receiver",
          "type": "address"
        },
        {
          "indexed": false,
          "internalType": "uint256",
          "name": "amount",
          "type": "uint256"
        },
        {
          "indexed": false,
          "internalType": "uint256",
          "name": "timestamp",
          "type": "uint256"
        }
      ],
      "name": "Withdrawal",
      "type": "event"
    },
    {
      "inputs": [],
      "name": "feePercent",
      "outputs": [
        {
          "internalType": "uint256",
          "name": "",
          "type": "uint256"
        }
      ],
      "stateMutability": "view",
      "type": "function",
      "constant": true
    },
    {
      "inputs": [],
      "name": "itemCount",
      "outputs": [
        {
          "internalType": "uint256",
          "name": "",
          "type": "uint256"
        }
      ],
      "stateMutability": "view",
      "type": "function",
      "constant": true
    },
    {
      "inputs": [
        {
          "internalType": "uint256",
          "name": "",
          "type": "uint256"
        }
      ],
      "name": "items",
      "outputs": [
        {
          "internalType": "uint256",
          "name": "id",
          "type": "uint256"
        },
        {
          "internalType": "address",
          "name": "seller",
          "type": "address"
        },
        {
          "internalType": "string",
          "name": "name",
          "type": "string"
        },
        {
          "internalType": "uint256",
          "name": "price",
          "type": "uint256"
        },
        {
          "internalType": "string",
          "name": "image",
          "type": "string"
        },
        {
          "internalType": "bool",
          "name": "sold",
          "type": "bool"
        }
      ],
      "stateMutability": "view",
      "type": "function",
      "constant": true
    },
    {
      "inputs": [
        {
          "internalType": "address",
          "name": "",
          "type": "address"
        }
      ],
      "name": "salesOf",
      "outputs": [
        {
          "internalType": "uint256",
          "name": "",
          "type": "uint256"
        }
      ],
      "stateMutability": "view",
      "type": "function",
      "constant": true
    },
    {
      "inputs": [],
      "name": "storeAcc",
      "outputs": [
        {
          "internalType": "uint256",
          "name": "",
          "type": "uint256"
        }
      ],
      "stateMutability": "view",
      "type": "function",
      "constant": true
    },
    {
      "inputs": [],
      "name": "storeName",
      "outputs": [
        {
          "internalType": "string",
          "name": "",
          "type": "string"
        }
      ],
      "stateMutability": "view",
      "type": "function",
      "constant": true
    },
    {
      "inputs": [],
      "name": "storeOwner",
      "outputs": [
        {
          "internalType": "address",
          "name": "",
          "type": "address"
        }
      ],
      "stateMutability": "view",
      "type": "function",
      "constant": true
    },
    {
      "inputs": [],
      "name": "storeSales",
      "outputs": [
        {
          "internalType": "uint256",
          "name": "",
          "type": "uint256"
        }
      ],
      "stateMutability": "view",
      "type": "function",
      "constant": true
    },
    {
      "inputs": [
        {
          "internalType": "string",
          "name": "_name",
          "type": "string"
        },
        {
          "internalType": "uint256",
          "name": "_price",
          "type": "uint256"
        },
        {
          "internalType": "string",
          "name": "_image",
          "type": "string"
        }
      ],
      "name": "listItem",
      "outputs": [],
      "stateMutability": "nonpayable",
      "type": "function"
    },
    {
      "inputs": [
        {
          "internalType": "address",
          "name": "seller",
          "type": "address"
        },
        {
          "internalType": "string",
          "name": "purpose",
          "type": "string"
        }
      ],
      "name": "payNow",
      "outputs": [
        {
          "internalType": "bool",
          "name": "success",
          "type": "bool"
        }
      ],
      "stateMutability": "payable",
      "type": "function",
      "payable": true
    },
    {
      "inputs": [],
      "name": "getAllSales",
      "outputs": [
        {
          "components": [
            {
              "internalType": "address",
              "name": "buyer",
              "type": "address"
            },
            {
              "internalType": "address",
              "name": "seller",
              "type": "address"
            },
            {
              "internalType": "uint256",
              "name": "amount",
              "type": "uint256"
            },
            {
              "internalType": "string",
              "name": "purpose",
              "type": "string"
            },
            {
              "internalType": "uint256",
              "name": "timestamp",
              "type": "uint256"
            }
          ],
          "internalType": "struct Store.SalesStruct[]",
          "name": "",
          "type": "tuple[]"
        }
      ],
      "stateMutability": "view",
      "type": "function",
      "constant": true
    }
  ],
  "bytecode": "0x60c06040523480156200001157600080fd5b5060405162001f9f38038062001f9f833981810160405281019062000037919062000389565b82600190805190602001906200004f9291906200009c565b508173ffffffffffffffffffffffffffffffffffffffff1660808173ffffffffffffffffffffffffffffffffffffffff16815250508060a081815250506000808190555050505062000469565b828054620000aa9062000433565b90600052602060002090601f016020900481019282620000ce57600085556200011a565b82601f10620000e957805160ff19168380011785556200011a565b828001600101855582156200011a579182015b8281111562000119578251825591602001919060010190620000fc565b5b5090506200012991906200012d565b5090565b5b80821115620001485760008160009055506001016200012e565b5090565b6000604051905090565b600080fd5b600080fd5b600080fd5b600080fd5b6000601f19601f8301169050919050565b7f4e487b7100000000000000000000000000000000000000000000000000000000600052604160045260246000fd5b620001b5826200016a565b810181811067ffffffffffffffff82111715620001d757620001d66200017b565b5b80604052505050565b6000620001ec6200014c565b9050620001fa8282620001aa565b919050565b600067ffffffffffffffff8211156200021d576200021c6200017b565b5b62000228826200016a565b9050602081019050919050565b60005b838110156200025557808201518184015260208101905062000238565b8381111562000265576000848401525b50505050565b6000620002826200027c84620001ff565b620001e0565b905082815260208101848484011115620002a157620002a062000165565b5b620002ae84828562000235565b509392505050565b600082601f830112620002ce57620002cd62000160565b5b8151620002e08482602086016200026b565b91505092915050565b600073ffffffffffffffffffffffffffffffffffffffff82169050919050565b60006200031682620002e9565b9050919050565b620003288162000309565b81146200033457600080fd5b50565b60008151905062000348816200031d565b92915050565b6000819050919050565b62000363816200034e565b81146200036f57600080fd5b50565b600081519050620003838162000358565b92915050565b600080600060608486031215620003a557620003a462000156565b5b600084015167ffffffffffffffff811115620003c657620003c56200015b565b5b620003d486828701620002b6565b9350506020620003e78682870162000337565b9250506040620003fa8682870162000372565b9150509250925092565b7f4e487b7100000000000000000000000000000000000000000000000000000000600052602260045260246000fd5b600060028204905060018216806200044c57607f821691505b6020821081141562000463576200046262000404565b5b50919050565b60805160a051611afb620004a4600039600081816104f301526109de0152600081816105170152818161094d0152610ab40152611afb6000f3fe60806040526004361061009c5760003560e01c8063818fb3e011610064578063818fb3e0146101785780638d250014146101a3578063bfb231d2146101cc578063db53f5481461020e578063dd8806091461023e578063e9b44eeb1461027b5761009c565b806333396917146100a157806340152d5c146100cc578063521936e6146100f75780636bfb0d01146101225780637fd6f15c1461014d575b600080fd5b3480156100ad57600080fd5b506100b66102a6565b6040516100c391906110c1565b60405180910390f35b3480156100d857600080fd5b506100e1610457565b6040516100ee91906110f2565b60405180910390f35b34801561010357600080fd5b5061010c61045d565b6040516101199190611157565b60405180910390f35b34801561012e57600080fd5b506101376104eb565b60405161014491906110f2565b60405180910390f35b34801561015957600080fd5b506101626104f1565b60405161016f91906110f2565b60405180910390f35b34801561018457600080fd5b5061018d610515565b60405161019a9190611188565b60405180910390f35b3480156101af57600080fd5b506101ca60048036038101906101c59190611318565b610539565b005b3480156101d857600080fd5b506101f360048036038101906101ee91906113a3565b61078e565b604051610205969594939291906113eb565b60405180910390f35b61022860048036038101906102239190611486565b610907565b60405161023591906114e2565b60405180910390f35b34801561024a57600080fd5b50610265600480360381019061026091906114fd565b610c97565b60405161027291906110f2565b60405180910390f35b34801561028757600080fd5b50610290610caf565b60405161029d91906110f2565b60405180910390f35b60606004805480602002602001604051908101604052809291908181526020016000905b8282101561044e57838290600052602060002090600502016040518060a00160405290816000820160009054906101000a900473ffffffffffffffffffffffffffffffffffffffff1673ffffffffffffffffffffffffffffffffffffffff1673ffffffffffffffffffffffffffffffffffffffff1681526020016001820160009054906101000a900473ffffffffffffffffffffffffffffffffffffffff1673ffffffffffffffffffffffffffffffffffffffff1673ffffffffffffffffffffffffffffffffffffffff168152602001600282015481526020016003820180546103b390611559565b80601f01602080910402602001604051908101604052809291908181526020018280546103df90611559565b801561042c5780601f106104015761010080835404028352916020019161042c565b820191906000526020600020905b81548152906001019060200180831161040f57829003601f168201915b50505050508152602001600482015481525050815260200190600101906102ca565b50505050905090565b60005481565b6001805461046a90611559565b80601f016020809104026020016040519081016040528092919081815260200182805461049690611559565b80156104e35780601f106104b8576101008083540402835291602001916104e3565b820191906000526020600020905b8154815290600101906020018083116104c657829003601f168201915b505050505081565b60065481565b7f000000000000000000000000000000000000000000000000000000000000000081565b7f000000000000000000000000000000000000000000000000000000000000000081565b600083511161057d576040517f08c379a0000000000000000000000000000000000000000000000000000000008152600401610574906115d7565b60405180910390fd5b600082116105c0576040517f08c379a00000000000000000000000000000000000000000000000000000000081526004016105b790611669565b60405180910390fd5b6000815111610604576040517f08c379a00000000000000000000000000000000000000000000000000000000081526004016105fb906116d5565b60405180910390fd5b6006600081548092919061061790611724565b91905055506040518060c0016040528060065481526020013373ffffffffffffffffffffffffffffffffffffffff168152602001848152602001838152602001828152602001600015158152506005600060065481526020019081526020016000206000820151816000015560208201518160010160006101000a81548173ffffffffffffffffffffffffffffffffffffffff021916908373ffffffffffffffffffffffffffffffffffffffff16021790555060408201518160020190805190602001906106e6929190610df3565b5060608201518160030155608082015181600401908051906020019061070d929190610df3565b5060a08201518160050160006101000a81548160ff0219169083151502179055509050503373ffffffffffffffffffffffffffffffffffffffff167fd52ce377d41a3799c683d175f4068ab2f8fe097c724fec0a3316c1645b826ca26006548585854260405161078195949392919061176d565b60405180910390a2505050565b60056020528060005260406000206000915090508060000154908060010160009054906101000a900473ffffffffffffffffffffffffffffffffffffffff16908060020180546107dd90611559565b80601f016020809104026020016040519081016040528092919081815260200182805461080990611559565b80156108565780601f1061082b57610100808354040283529160200191610856565b820191906000526020600020905b81548152906001019060200180831161083957829003601f168201915b50505050509080600301549080600401805461087190611559565b80601f016020809104026020016040519081016040528092919081815260200182805461089d90611559565b80156108ea5780601f106108bf576101008083540402835291602001916108ea565b820191906000526020600020905b8154815290600101906020018083116108cd57829003601f168201915b5050505050908060050160009054906101000a900460ff16905086565b600080341161094b576040517f08c379a00000000000000000000000000000000000000000000000000000000081526004016109429061181a565b60405180910390fd5b7f000000000000000000000000000000000000000000000000000000000000000073ffffffffffffffffffffffffffffffffffffffff163373ffffffffffffffffffffffffffffffffffffffff1614156109da576040517f08c379a00000000000000000000000000000000000000000000000000000000081526004016109d190611886565b60405180910390fd5b60007f0000000000000000000000000000000000000000000000000000000000000000606434610a0a91906118d5565b610a149190611906565b905060008134610a249190611960565b905034600080828254610a379190611994565b92505081905550600160026000828254610a519190611994565b925050819055506001600360008773ffffffffffffffffffffffffffffffffffffffff1673ffffffffffffffffffffffffffffffffffffffff1681526020019081526020016000206000828254610aa89190611994565b92505081905550610ad97f000000000000000000000000000000000000000000000000000000000000000083610cb5565b50610ae48582610cb5565b5060046040518060a001604052803373ffffffffffffffffffffffffffffffffffffffff1681526020018773ffffffffffffffffffffffffffffffffffffffff16815260200183815260200186815260200142815250908060018154018082558091505060019003906000526020600020906005020160009091909190915060008201518160000160006101000a81548173ffffffffffffffffffffffffffffffffffffffff021916908373ffffffffffffffffffffffffffffffffffffffff16021790555060208201518160010160006101000a81548173ffffffffffffffffffffffffffffffffffffffff021916908373ffffffffffffffffffffffffffffffffffffffff160217905550604082015181600201556060820151816003019080519060200190610c17929190610df3565b506080820151816004015550508473ffffffffffffffffffffffffffffffffffffffff163373ffffffffffffffffffffffffffffffffffffffff167f681ddc67ea8796d2489979f5fc2ea2eb0f2d44ff3f11f061a191928a1f3d9a068342604051610c839291906119ea565b60405180910390a360019250505092915050565b60036020528060005260406000206000915090505481565b60025481565b6000816000541015610cfc576040517f08c379a0000000000000000000000000000000000000000000000000000000008152600401610cf390611a5f565b60405180910390fd5b610d068383610d78565b81600080828254610d179190611960565b925050819055508273ffffffffffffffffffffffffffffffffffffffff167fdf273cb619d95419a9cd0ec88123a0538c85064229baa6363788f743fff90deb8342604051610d669291906119ea565b60405180910390a26001905092915050565b60008273ffffffffffffffffffffffffffffffffffffffff1682604051610d9e90611ab0565b60006040518083038185875af1925050503d8060008114610ddb576040519150601f19603f3d011682016040523d82523d6000602084013e610de0565b606091505b5050905080610dee57600080fd5b505050565b828054610dff90611559565b90600052602060002090601f016020900481019282610e215760008555610e68565b82601f10610e3a57805160ff1916838001178555610e68565b82800160010185558215610e68579182015b82811115610e67578251825591602001919060010190610e4c565b5b509050610e759190610e79565b5090565b5b80821115610e92576000816000905550600101610e7a565b5090565b600081519050919050565b600082825260208201905092915050565b6000819050602082019050919050565b600073ffffffffffffffffffffffffffffffffffffffff82169050919050565b6000610eed82610ec2565b9050919050565b610efd81610ee2565b82525050565b6000819050919050565b610f1681610f03565b82525050565b600081519050919050565b600082825260208201905092915050565b60005b83811015610f56578082015181840152602081019050610f3b565b83811115610f65576000848401525b50505050565b6000601f19601f8301169050919050565b6000610f8782610f1c565b610f918185610f27565b9350610fa1818560208601610f38565b610faa81610f6b565b840191505092915050565b600060a083016000830151610fcd6000860182610ef4565b506020830151610fe06020860182610ef4565b506040830151610ff36040860182610f0d565b506060830151848203606086015261100b8282610f7c565b91505060808301516110206080860182610f0d565b508091505092915050565b60006110378383610fb5565b905092915050565b6000602082019050919050565b600061105782610e96565b6110618185610ea1565b93508360208202850161107385610eb2565b8060005b858110156110af5784840389528151611090858261102b565b945061109b8361103f565b925060208a01995050600181019050611077565b50829750879550505050505092915050565b600060208201905081810360008301526110db818461104c565b905092915050565b6110ec81610f03565b82525050565b600060208201905061110760008301846110e3565b92915050565b600082825260208201905092915050565b600061112982610f1c565b611133818561110d565b9350611143818560208601610f38565b61114c81610f6b565b840191505092915050565b60006020820190508181036000830152611171818461111e565b905092915050565b61118281610ee2565b82525050565b600060208201905061119d6000830184611179565b92915050565b6000604051905090565b600080fd5b600080fd5b600080fd5b600080fd5b7f4e487b7100000000000000000000000000000000000000000000000000000000600052604160045260246000fd5b6111f982610f6b565b810181811067ffffffffffffffff82111715611218576112176111c1565b5b80604052505050565b600061122b6111a3565b905061123782826111f0565b919050565b600067ffffffffffffffff821115611257576112566111c1565b5b61126082610f6b565b9050602081019050919050565b82818337600083830152505050565b600061128f61128a8461123c565b611221565b9050828152602081018484840111156112ab576112aa6111bc565b5b6112b684828561126d565b509392505050565b600082601f8301126112d3576112d26111b7565b5b81356112e384826020860161127c565b91505092915050565b6112f581610f03565b811461130057600080fd5b50565b600081359050611312816112ec565b92915050565b600080600060608486031215611331576113306111ad565b5b600084013567ffffffffffffffff81111561134f5761134e6111b2565b5b61135b868287016112be565b935050602061136c86828701611303565b925050604084013567ffffffffffffffff81111561138d5761138c6111b2565b5b611399868287016112be565b9150509250925092565b6000602082840312156113b9576113b86111ad565b5b60006113c784828501611303565b91505092915050565b60008115159050919050565b6113e5816113d0565b82525050565b600060c08201905061140060008301896110e3565b61140d6020830188611179565b818103604083015261141f818761111e565b905061142e60608301866110e3565b8181036080830152611440818561111e565b905061144f60a08301846113dc565b979650505050505050565b61146381610ee2565b811461146e57600080fd5b50565b6000813590506114808161145a565b92915050565b6000806040838503121561149d5761149c6111ad565b5b60006114ab85828601611471565b925050602083013567ffffffffffffffff8111156114cc576114cb6111b2565b5b6114d8858286016112be565b9150509250929050565b60006020820190506114f760008301846113dc565b92915050565b600060208284031215611513576115126111ad565b5b600061152184828501611471565b91505092915050565b7f4e487b7100000000000000000000000000000000000000000000000000000000600052602260045260246000fd5b6000600282049050600182168061157157607f821691505b602082108114156115855761158461152a565b5b50919050565b7f4974656d206e616d652069732072657175697265640000000000000000000000600082015250565b60006115c160158361110d565b91506115cc8261158b565b602082019050919050565b600060208201905081810360008301526115f0816115b4565b9050919050565b7f4974656d207072696365206d7573742062652067726561746572207468616e2060008201527f7a65726f00000000000000000000000000000000000000000000000000000000602082015250565b600061165360248361110d565b915061165e826115f7565b604082019050919050565b6000602082019050818103600083015261168281611646565b9050919050565b7f4974656d20696d61676520697320726571756972656400000000000000000000600082015250565b60006116bf60168361110d565b91506116ca82611689565b602082019050919050565b600060208201905081810360008301526116ee816116b2565b9050919050565b7f4e487b7100000000000000000000000000000000000000000000000000000000600052601160045260246000fd5b600061172f82610f03565b91507fffffffffffffffffffffffffffffffffffffffffffffffffffffffffffffffff821415611762576117616116f5565b5b600182019050919050565b600060a08201905061178260008301886110e3565b8181036020830152611794818761111e565b90506117a360408301866110e3565b81810360608301526117b5818561111e565b90506117c460808301846110e3565b9695505050505050565b7f4574686572732063616e6e6f74206265207a65726f2100000000000000000000600082015250565b600061180460168361110d565b915061180f826117ce565b602082019050919050565b60006020820190508181036000830152611833816117f7565b9050919050565b7f53616c65204e6f7420616c6c6f77656400000000000000000000000000000000600082015250565b600061187060108361110d565b915061187b8261183a565b602082019050919050565b6000602082019050818103600083015261189f81611863565b9050919050565b7f4e487b7100000000000000000000000000000000000000000000000000000000600052601260045260246000fd5b60006118e082610f03565b91506118eb83610f03565b9250826118fb576118fa6118a6565b5b828204905092915050565b600061191182610f03565b915061191c83610f03565b9250817fffffffffffffffffffffffffffffffffffffffffffffffffffffffffffffffff0483118215151615611955576119546116f5565b5b828202905092915050565b600061196b82610f03565b915061197683610f03565b925082821015611989576119886116f5565b5b828203905092915050565b600061199f82610f03565b91506119aa83610f03565b9250827fffffffffffffffffffffffffffffffffffffffffffffffffffffffffffffffff038211156119df576119de6116f5565b5b828201905092915050565b60006040820190506119ff60008301856110e3565b611a0c60208301846110e3565b9392505050565b7f496e737566666963656e742046756e6421000000000000000000000000000000600082015250565b6000611a4960118361110d565b9150611a5482611a13565b602082019050919050565b60006020820190508181036000830152611a7881611a3c565b9050919050565b600081905092915050565b50565b6000611a9a600083611a7f565b9150611aa582611a8a565b600082019050919050565b6000611abb82611a8d565b915081905091905056fea2646970667358221220c42e623280bc035bec9f3ce650271ac8751ba4c65279f0e002ecf6d146c8c7ae64736f6c634300080b0033",
  "immutableReferences": {
    "36": [
      {
        "length": 32,
        "start": 1303
      },
      {
        "length": 32,
        "start": 2381
      },
      {
        "length": 32,
        "start": 2740
      }
    ],
    "42": [
      {
        "length": 32,
        "start": 1267
      },
      {
        "length": 32,
        "start": 2526
      }
    ]
  },
  "source": "// SPDX-License-Identifier: MIT\r\npragma solidity ^0.8.4;\r\n\r\ncontract Store {\r\n    // Store variables\r\n    address public immutable storeOwner;\r\n    uint256 public storeAcc;\r\n    string public storeName;\r\n    uint256 public immutable feePercent;\r\n    uint256 public storeSales;\r\n\r\n    // Tracking users number of sales\r\n    mapping(address => uint256) public salesOf;\r\n\r\n    // Declaring Events within each sale\r\n    event Sale(\r\n        address indexed buyer,\r\n        address indexed seller,\r\n        uint256 amount,\r\n        uint256 timestamp\r\n    );\r\n\r\n    event Withdrawal(\r\n        address indexed receiver,\r\n        uint256 amount,\r\n        uint256 timestamp\r\n    );\r\n\r\n    // Structuring the sales object\r\n    struct SalesStruct {\r\n        address buyer;\r\n        address seller;\r\n        uint256 amount;\r\n        string purpose;\r\n        uint256 timestamp;\r\n    }\r\n\r\n    SalesStruct[] sales;\r\n\r\n    struct Item {\r\n    uint256 id;\r\n    address seller;\r\n    string name;\r\n    uint256 price;\r\n    string image;\r\n    bool sold;\r\n    }\r\n\r\n    mapping(uint256 => Item) public items;\r\n    uint256 public itemCount;\r\n\r\n    event ItemListed(\r\n    uint256 id,\r\n    address indexed seller,\r\n    string name,\r\n    uint256 price,\r\n    string image,\r\n    uint256 timestamp\r\n    );\r\n\r\n    // Initializing the store\r\n    constructor(\r\n        string memory _storeName,\r\n        address _storeOwner,\r\n        uint256 _feePercent\r\n    ) {\r\n        storeName = _storeName;\r\n        storeOwner = _storeOwner;\r\n        feePercent = _feePercent;\r\n        storeAcc = 0;\r\n    }\r\n\r\n    // Function to list an item\r\n    function listItem(string memory _name, uint256 _price, string memory _image) public {\r\n        require(bytes(_name).length > 0, \"Item name is required\");\r\n        require(_price > 0, \"Item price must be greater than zero\");\r\n        require(bytes(_image).length > 0, \"Item image is required\");\r\n\r\n        itemCount++;\r\n        items[itemCount] = Item(itemCount, msg.sender, _name, _price, _image, false);\r\n\r\n        emit ItemListed(itemCount, msg.sender, _name, _price, _image, block.timestamp);\r\n    }\r\n\r\n    // Performing sales payment\r\n    function payNow(address seller, string memory purpose)\r\n        public\r\n        payable\r\n        returns (bool success)\r\n    {\r\n        // Validating payments\r\n        require(msg.value > 0, \"Ethers cannot be zero!\");\r\n        require(msg.sender != storeOwner, \"Sale Not allowed\");\r\n\r\n        // Calculating up cost and fee\r\n        uint256 fee = (msg.value / 100) * feePercent;\r\n        uint256 cost = msg.value - fee;\r\n\r\n        // Assigning sales and payment to store and product owner\r\n        storeAcc += msg.value;\r\n        storeSales += 1;\r\n        salesOf[seller] += 1;\r\n\r\n        // Cashing out to sales party\r\n        withdrawMoneyTo(storeOwner, fee);\r\n        withdrawMoneyTo(seller, cost);\r\n\r\n        // Recording sales in smart contract\r\n        sales.push(\r\n            SalesStruct(msg.sender, seller, cost, purpose, block.timestamp)\r\n        );\r\n\r\n        // Captures sales data on event\r\n        emit Sale(msg.sender, seller, cost, block.timestamp);\r\n        return true;\r\n    }\r\n\r\n    // Sends ethers to a specified address\r\n    function _payTo(address _to, uint256 _amount) internal {\r\n        (bool success1, ) = payable(_to).call{value: _amount}(\"\");\r\n        require(success1);\r\n    }\r\n\r\n    // Performs ethers transfer\r\n    function withdrawMoneyTo(address receiver, uint256 amount)\r\n        internal\r\n        returns (bool success)\r\n    {\r\n        require(storeAcc >= amount, \"Insufficent Fund!\");\r\n\r\n        _payTo(receiver, amount);\r\n        storeAcc -= amount;\r\n\r\n        // Captures transfer data on event\r\n        emit Withdrawal(receiver, amount, block.timestamp);\r\n        return true;\r\n    }\r\n\r\n    // Retreives all processed sales from smart contract\r\n    function getAllSales() public view returns (SalesStruct[] memory) {\r\n        return sales;\r\n    }\r\n}",
  "sourcePath": "C:\\Users\\fudge\\Desktop\\Blockchain V2\\ecochain\\contracts\\Store.sol",
  "compiler": {
    "name": "solc",
    "version": "0.8.11+commit.d7f03943.Emscripten.clang"
  },
  "schemaVersion": "3.4.16",
  "updatedAt": "2025-01-17T07:18:45.930Z",
  "networkType": "ethereum",
  "devdoc": {
    "kind": "dev",
    "methods": {},
    "version": 1
  },
  "userdoc": {
    "kind": "user",
    "methods": {},
    "version": 1
  }
}